:100000000C945C000C941B040C94F5030C94790084
:100010000C9479000C9479000C9479000C942C04C5
:100020000C9479000C9479000C9479000C9479006C
:100030000C9479000C9479000C9479000C9479005C
:100040000C9490020C9479000C9479000C94790033
:100050000C9479000C9479000C9479000C9479003C
:100060000C94DA020C9479000000000800020100F0
:100070000003040700000000000000000000000072
:10008000250028002B0000000000240027002A0083
:10009000040404040404040402020202020203032E
:1000A0000303030301020408102040800102040836
:1000B000102001020408102011241FBECFEFD8E049
:1000C000DEBFCDBF11E0A0E0B1E0E8E9FBE002C097
:1000D00005900D92A830B107D9F721E0A8E0B1E072
:1000E00001C01D92A438B207E1F70E94BD040C9430
:1000F000CA050C94000090E0FC01EC55FF4F2491E0
:1001000080579F4FFC018491882399F090E0880FDD
:10011000991FFC01EA57FF4FA591B491FC01E458E7
:10012000FF4F859194918FB7F894EC91E22BEC936B
:100130008FBF089590E0FC01E859FF4F2491FC0126
:10014000EC55FF4F3491FC01E057FF4FE491EE2353
:10015000C9F0222339F0233001F1A8F4213019F13C
:10016000223029F1F0E0EE0FFF1FE458FF4FA59178
:10017000B4918FB7F894EC91611126C030953E236D
:100180003C938FBF08952730A9F02830C9F0243060
:1001900049F7809180008F7D03C0809180008F7728
:1001A00080938000DFCF84B58F7784BDDBCF84B5AB
:1001B0008F7DFBCF8091B0008F778093B000D2CF3E
:1001C0008091B0008F7DF9CF3E2BDACF1F93CF9374
:1001D000DF93182FEB010E947B00209739F460E039
:1001E000812FDF91CF911F910C949A00CF3FD105C1
:1001F00011F461E0F5CFE12FF0E0E859FF4FE49111
:10020000E33031F140F4E130B1F0E230E1F0C038F8
:10021000D1057CF7E4CFE73029F1E83059F1E4303B
:10022000B1F780918000806280938000D0938B0032
:10023000C0938A0004C084B5806884BDC7BDDF91C7
:10024000CF911F91089584B5806284BDC8BDF7CF5A
:1002500080918000806880938000D0938900C09353
:100260008800EDCF8091B00080688093B000C0938B
:10027000B300E5CF8091B00080628093B000C0935E
:10028000B400DDCF3FB7F89480917F019091800159
:10029000A0918101B091820126B5A89B05C02F3F96
:1002A00019F00196A11DB11D3FBFBA2FA92F982F9C
:1002B0008827BC01CD01620F711D811D911D42E097
:1002C000660F771F881F991F4A95D1F708958F925F
:1002D0009F92AF92BF92CF92DF92EF92FF924B012B
:1002E0005C010E9442016B017C010E9442016C1979
:1002F0007D098E099F09683E734081059105A8F329
:1003000021E0821A9108A108B10888EEC80E83E0A6
:10031000D81EE11CF11C81149104A104B10429F739
:10032000FF90EF90DF90CF90BF90AF909F908F9015
:10033000089520913001260F3327331F21323105D4
:10034000ECF420915401FC0190E080E0243069F04D
:1003500082E00895A09130012191AC01405F5E4F91
:10036000A40FB52FB11D2C930196861798F3809199
:100370003001680F6093300180E0089581E00895B6
:1003800008958FEF9FEF08958FEF9FEF089580916D
:10039000090190E09195819591090895CF93DF939C
:1003A000CB01EA01642F0E949901CE01DF91CF9128
:1003B0000895CF93DF931F92CDB7DEB7698361E0D5
:1003C000CE0101960E94990181E090E00F90DF91AB
:1003D000CF91089590E080E00895CF93C82F60E01A
:1003E00088E00E949A0060E08CE00E949A0060E041
:1003F0008BE00E949A0060E08DE00E949A00C2307B
:1004000089F020F4C13091F0CF910895C33031F0DC
:10041000C430D1F761E088E00E949A0061E08CE08E
:100420000E949A0061E08BE00E949A0061E08DE0FA
:10043000CF910C949A001F93CF93DF9385ED809317
:10044000BC0080910C0190910D01A0910E01B09122
:100450000F010796A11DB11D23E0B695A7959795AD
:1004600087952A95D1F72091BC0024FD03C01092F6
:10047000540152C040910C0150910D0160910E0148
:1004800070910F01452B462B472B69F30097A1056F
:10049000B10541F025E32A95F1F700000197A10984
:1004A000B109E1CF80910B01C1E0C0930A0188231B
:1004B00099F1D091B8001091BA008091BC008A7B6C
:1004C0008093BC0060E082E10E949A0060E083E1DA
:1004D0000E949A0010925401C09356011092550147
:1004E00061E082E10E949A0061E083E10E949A004B
:1004F0008091B9008E7F8093B9008091B9008D7F83
:100500008093B90088E48093B80085E48093BC00B0
:100510001093BA00D093B800DF91CF911F91089546
:100520001F920F920FB60F9211242F933F938F9328
:100530009F93AF93BF9380917B0190917C01A09199
:100540007D01B0917E0130917A0123E0230F2D3798
:1005500058F50196A11DB11D20937A0180937B016E
:1005600090937C01A0937D01B0937E0180917F01E7
:1005700090918001A0918101B09182010196A11D0D
:10058000B11D80937F0190938001A0938101B0936E
:100590008201BF91AF919F918F913F912F910F90C9
:1005A0000FBE0F901F90189526E8230F0296A11DED
:1005B000B11DD2CF1F920F920FB60F9211242F931D
:1005C0003F934F935F936F937F938F939F93AF93DB
:1005D000BF93EF93FF938091B900887F803609F431
:1005E0004AC0F0F5883209F4A5C018F5803109F445
:1005F00099C0B8F4882309F4F5C0883009F492C092
:10060000FF91EF91BF91AF919F918F917F916F91EA
:100610005F914F913F912F910F900FBE0F901F90C0
:100620001895883109F486C0803251F780935301C0
:1006300014C0803409F49BC040F48033B9F388338C
:10064000F9F68093530185ECAEC0803509F483C080
:10065000883509F494C0883499F60E941B02D0CFE3
:10066000883909F48AC038F5883729F050F488367B
:1006700011F0803729F683E08093540110925201E3
:1006800055C0883809F479C0803919F0803809F0EC
:10069000B7CF80915201803208F06FC0E0915201D3
:1006A00081E08E0F809352018091BB00F0E0EE5C00
:1006B000FE4F80833BC0803B39F0D0F4803A09F490
:1006C00077C0883A09F09CCF84E08093540110925F
:1006D000310110923001F0E0E0E0099580913001A5
:1006E00081110FC081E0809330011092100109C088
:1006F000803C09F4A8CF883C09F4A5CF883B09F0D9
:100700007FCFE091310181E08E0F80933101F0E0E5
:10071000E05FFE4F80818093BB009091310180911A
:10072000300129C0809179018093BB0085EC8093D2
:10073000BC0066CF9091780180917701981758F5A9
:10074000E091780181E08E0F80937801F0E0E95A22
:10075000FE4F8081E9CFE091780181E08E0F809398
:1007600078018091BB00F0E0E95AFE4F80839091C0
:100770007801809177019817C8F285E8D8CFE09189
:10078000780181E08E0F809378018091BB00F0E0CA
:10079000E95AFE4F80838091560181115ECF81E03E
:1007A0008093550184EA8093BC001092540128CFB5
:1007B00085EC8093BC0010925401809152018032EC
:1007C00030F4E0915201F0E0EE5CFE4F1082609157
:1007D000520170E082E391E0F0E0E0E009951092D0
:1007E00052010ECF1092530138CF1F920F920FB6C5
:1007F0000F9211242F933F934F935F936F937F93A7
:100800008F939F93AF93BF93EF93FF9360E084E048
:100810000E949A00FF91EF91BF91AF919F918F91AC
:100820007F916F915F914F913F912F910F900FBEEC
:100830000F901F9018951F920F920FB60F921124D0
:100840008F93809183018F5F809383018F910F90AD
:100850000FBE0F901F90189578941F920F920FB6AD
:100860000F921124CF92DF92EF92FF920F931F937A
:100870002F933F934F935F936F937F938F939F93A8
:10088000AF93BF93CF93EF93FF939091080181E0D3
:10089000891B80930801882309F457C00E944201F4
:1008A0006B017C0188B18F6088B9CFE00E94420162
:1008B000DC01CB018C199D09AE09BF09C0FF0DC039
:1008C000009106011091070130E020E080179107A8
:1008D000A207B30710F04098CE7FC1FF0DC0009172
:1008E00004011091050130E020E080179107A20774
:1008F000B30710F04198CD7FC2FF0DC000910201F7
:100900001091030130E020E080179107A207B307A0
:1009100010F04298CB7FC3FF0DC0009100011091F1
:10092000010130E020E080179107A207B30710F023
:100930004398C77F803D9740A105B10520F088B15D
:10094000807F88B902C0C111B1CFFF91EF91CF91E3
:10095000BF91AF919F918F917F916F915F914F91D7
:100960003F912F911F910F91FF90EF90DF90CF90CB
:100970000F900FBE0F901F901895789484B58260E9
:1009800084BD84B5816084BD85B5826085BD85B533
:10099000816085BD80916E00816080936E001092B1
:1009A000810080918100826080938100809181002C
:1009B00081608093810080918000816080938000BD
:1009C0008091B10084608093B1008091B00081601B
:1009D0008093B00080917A00846080937A00809147
:1009E0007A00826080937A0080917A00816080939F
:1009F0007A0080917A00806880937A001092C1001A
:100A000088E00E947B008CE00E947B008BE00E94CB
:100A10007B008DE00E947B008EE00E947B0084E0E2
:100A20000E947B0061E08EE00E949A0061E084E019
:100A30000E949A0010928301F8941092B0001092D4
:100A4000B1001092B2008BE98093B3008091B000A6
:100A500082608093B0008091B10087608093B10084
:100A6000B99A809170008260809370008FE08093CB
:100A7000690083E08DBB789480E00E94ED01C8EEB0
:100A8000D3E002EE14E08CEDE82E85E0F82E96ED32
:100A9000C92E96E0D92E20E0A22E20E0B22E61E0F1
:100AA00084E00E949A0080E00E94ED0164EF71E012
:100AB00080E090E00E94670181E00E94ED0164EF18
:100AC00071E080E090E00E94670182E00E94ED0109
:100AD00064EF71E080E090E00E94670183E00E9493
:100AE000ED0164EF71E080E090E00E94670184E036
:100AF0000E94ED0164EF71E080E090E00E946701E8
:100B0000D0930701C09306011093050100930401DF
:100B1000F0920301E0920201D0920101C092000123
:100B200060E086E00E949A0068EC70E085E00E9438
:100B3000E60060E08AE00E949A0068EC70E089E0DC
:100B40000E94E60068EE73E080E090E00E9467019A
:100B500060E085E00E949A0068E37FEF86E00E94F3
:100B6000E60060E089E00E949A0068E37FEF8AE097
:100B70000E94E60068EE73E080E090E00E9467016A
:100B800010928301A114B10409F489CF0E940000DE
:080B900086CF0895F894FFCF11
:080B9800E803E803E803E803A9
:00000001FF
