:020000040000FA
:100000000C945C000C941B040C94F5030C94790084
:100010000C9479000C9479000C9479000C942C04C5
:100020000C9479000C9479000C9479000C9479006C
:100030000C9479000C9479000C9479000C9479005C
:100040000C9490020C9479000C9479000C94790033
:100050000C9479000C9479000C9479000C9479003C
:100060000C94DA020C9479000000000800020100F0
:100070000003040700000000000000000000000072
:10008000250028002B0000000000240027002A0083
:10009000040404040404040402020202020203032E
:1000A0000303030301020408102040800102040836
:1000B000102001020408102011241FBECFEFD8E049
:1000C000DEBFCDBF11E0A0E0B1E0E8E9FBE002C097
:1000D00005900D92A830B107D9F721E0A8E0B1E072
:1000E00001C01D92A438B207E1F70E94BD040C9430
:1000F000CA050C94000090E0FC01EC55FF4F2491E0
:1001000080579F4FFC018491882399F090E0880FDD
:10011000991FFC01EA57FF4FA591B491FC01E458E7
:10012000FF4F859194918FB7F894EC91E22BEC936B
:100130008FBF089590E0FC01E859FF4F2491FC0126
:10014000EC55FF4F3491FC01E057FF4FE491EE2353
:10015000C9F0222339F0233001F1A8F4213019F13C
:10016000223029F1F0E0EE0FFF1FE458FF4FA59178
:10017000B4918FB7F894EC91611126C030953E236D
:100180003C938FBF08952730A9F02830C9F0243060
:1001900049F7809180008F7D03C0809180008F7728
:1001A00080938000DFCF84B58F7784BDDBCF84B5AB
:1001B0008F7DFBCF8091B0008F778093B000D2CF3E
:1001C0008091B0008F7DF9CF3E2BDACF1F93CF9374
:1001D000DF93182FEB010E947B00209739F460E039
:1001E000812FDF91CF911F910C949A00CF3FD105C1
:1001F00011F461E0F5CFE12FF0E0E859FF4FE49111
:10020000E33031F140F4E130B1F0E230E1F0C038F8
:10021000D1057CF7E4CFE73029F1E83059F1E4303B
:10022000B1F780918000806280938000D0938B0032
:10023000C0938A0004C084B5806884BDC7BDDF91C7
:10024000CF911F91089584B5806284BDC8BDF7CF5A
:1002500080918000806880938000D0938900C09353
:100260008800EDCF8091B00080688093B000C0938B
:10027000B300E5CF8091B00080628093B000C0935E
:10028000B400DDCF3FB7F89480917F019091800159
:10029000A0918101B091820126B5A89B05C02F3F96
:1002A00019F00196A11DB11D3FBFBA2FA92F982F9C
:1002B0008827BC01CD01620F711D811D911D42E097
:1002C000660F771F881F991F4A95D1F708958F925F
:1002D0009F92AF92BF92CF92DF92EF92FF924B012B
:1002E0005C010E9442016B017C010E9442016C1979
:1002F0007D098E099F09683E734081059105A8F329
:1003000021E0821A9108A108B10888EEC80E83E0A6
:10031000D81EE11CF11C81149104A104B10429F739
:10032000FF90EF90DF90CF90BF90AF909F908F9015
:10033000089520913001260F3327331F21323105D4
:10034000ECF420915401FC0190E080E0243069F04D
:1003500082E00895A09130012191AC01405F5E4F91
:10036000A40FB52FB11D2C930196861798F3809199
:100370003001680F6093300180E0089581E00895B6
:1003800008958FEF9FEF08958FEF9FEF089580916D
:10039000090190E09195819591090895CF93DF939C
:1003A000CB01EA01642F0E949901CE01DF91CF9128
:1003B0000895CF93DF931F92CDB7DEB7698361E0D5
:1003C000CE0101960E94990181E090E00F90DF91AB
:1003D000CF91089590E080E00895CF93C82F60E01A
:1003E00088E00E949A0060E08CE00E949A0060E041
:1003F0008BE00E949A0060E08DE00E949A00C2307B
:1004000089F020F4C13091F0CF910895C33031F0DC
:10041000C430D1F761E088E00E949A0061E08CE08E
:100420000E949A0061E08BE00E949A0061E08DE0FA
:10043000CF910C949A001F93CF93DF9385ED809317
:10044000BC0080910C0190910D01A0910E01B09122
:100450000F010796A11DB11D23E0B695A7959795AD
:1004600087952A95D1F72091BC0024FD03C01092F6
:10047000540152C040910C0150910D0160910E0148
:1004800070910F01452B462B472B69F30097A1056F
:10049000B10541F025E32A95F1F700000197A10984
:1004A000B109E1CF80910B01C1E0C0930A0188231B
:1004B00099F1D091B8001091BA008091BC008A7B6C
:1004C0008093BC0060E082E10E949A0060E083E1DA
:1004D0000E949A0010925401C09356011092550147
:1004E00061E082E10E949A0061E083E10E949A004B
:1004F0008091B9008E7F8093B9008091B9008D7F83
:100500008093B90088E48093B80085E48093BC00B0
:100510001093BA00D093B800DF91CF911F91089546
:100520001F920F920FB60F9211242F933F938F9328
:100530009F93AF93BF9380917B0190917C01A09199
:100540007D01B0917E0130917A0123E0230F2D3798
:1005500058F50196A11DB11D20937A0180937B016E
:1005600090937C01A0937D01B0937E0180917F01E7
:1005700090918001A0918101B09182010196A11D0D
:10058000B11D80937F0190938001A0938101B0936E
:100590008201BF91AF919F918F913F912F910F90C9
:1005A0000FBE0F901F90189526E8230F0296A11DED
:1005B000B11DD2CF1F920F920FB60F9211242F931D
:1005C0003F934F935F936F937F938F939F93AF93DB
:1005D000BF93EF93FF938091B900887F803609F431
:1005E0004AC0F0F5883209F4A5C018F5803109F445
:1005F00099C0B8F4882309F4F5C0883009F492C092
:10060000FF91EF91BF91AF919F918F917F916F91EA
:100610005F914F913F912F910F900FBE0F901F90C0
:100620001895883109F486C0803251F780935301C0
:1006300014C0803409F49BC040F48033B9F388338C
:10064000F9F68093530185ECAEC0803509F483C080
:10065000883509F494C0883499F60E941B02D0CFE3
:10066000883909F48AC038F5883729F050F488367B
:1006700011F0803729F683E08093540110925201E3
:1006800055C0883809F479C0803919F0803809F0EC
:10069000B7CF80915201803208F06FC0E0915201D3
:1006A00081E08E0F809352018091BB00F0E0EE5C00
:1006B000FE4F80833BC0803B39F0D0F4803A09F490
:1006C00077C0883A09F09CCF84E08093540110925F
:1006D000310110923001F0E0E0E0099580913001A5
:1006E00081110FC081E0809330011092100109C088
:1006F000803C09F4A8CF883C09F4A5CF883B09F0D9
:100700007FCFE091310181E08E0F80933101F0E0E5
:10071000E05FFE4F80818093BB009091310180911A
:10072000300129C0809179018093BB0085EC8093D2
:10073000BC0066CF9091780180917701981758F5A9
:10074000E091780181E08E0F80937801F0E0E95A22
:10075000FE4F8081E9CFE091780181E08E0F809398
:1007600078018091BB00F0E0E95AFE4F80839091C0
:100770007801809177019817C8F285E8D8CFE09189
:10078000780181E08E0F809378018091BB00F0E0CA
:10079000E95AFE4F80838091560181115ECF81E03E
:1007A0008093550184EA8093BC001092540128CFB5
:1007B00085EC8093BC0010925401809152018032EC
:1007C00030F4E0915201F0E0EE5CFE4F1082609157
:1007D000520170E082E391E0F0E0E0E009951092D0
:1007E00052010ECF1092530138CF1F920F920FB6C5
:1007F0000F9211242F933F934F935F936F937F93A7
:100800008F939F93AF93BF93EF93FF9360E084E048
:100810000E949A00FF91EF91BF91AF919F918F91AC
:100820007F916F915F914F913F912F910F900FBEEC
:100830000F901F9018951F920F920FB60F921124D0
:100840008F93809183018F5F809383018F910F90AD
:100850000FBE0F901F90189578941F920F920FB6AD
:100860000F921124CF92DF92EF92FF920F931F937A
:100870002F933F934F935F936F937F938F939F93A8
:10088000AF93BF93CF93EF93FF939091080181E0D3
:10089000891B80930801882309F457C00E944201F4
:1008A0006B017C0188B18F6088B9CFE00E94420162
:1008B000DC01CB018C199D09AE09BF09C0FF0DC039
:1008C000009106011091070130E020E080179107A8
:1008D000A207B30710F04098CE7FC1FF0DC0009172
:1008E00004011091050130E020E080179107A20774
:1008F000B30710F04198CD7FC2FF0DC000910201F7
:100900001091030130E020E080179107A207B307A0
:1009100010F04298CB7FC3FF0DC0009100011091F1
:10092000010130E020E080179107A207B30710F023
:100930004398C77F803D9740A105B10520F088B15D
:10094000807F88B902C0C111B1CFFF91EF91CF91E3
:10095000BF91AF919F918F917F916F915F914F91D7
:100960003F912F911F910F91FF90EF90DF90CF90CB
:100970000F900FBE0F901F901895789484B58260E9
:1009800084BD84B5816084BD85B5826085BD85B533
:10099000816085BD80916E00816080936E001092B1
:1009A000810080918100826080938100809181002C
:1009B00081608093810080918000816080938000BD
:1009C0008091B10084608093B1008091B00081601B
:1009D0008093B00080917A00846080937A00809147
:1009E0007A00826080937A0080917A00816080939F
:1009F0007A0080917A00806880937A001092C1001A
:100A000088E00E947B008CE00E947B008BE00E94CB
:100A10007B008DE00E947B008EE00E947B0084E0E2
:100A20000E947B0061E08EE00E949A0061E084E019
:100A30000E949A0010928301F8941092B0001092D4
:100A4000B1001092B2008BE98093B3008091B000A6
:100A500082608093B0008091B10087608093B10084
:100A6000B99A809170008260809370008FE08093CB
:100A7000690083E08DBB789480E00E94ED01C8EEB0
:100A8000D3E002EE14E08CEDE82E85E0F82E96ED32
:100A9000C92E96E0D92E20E0A22E20E0B22E61E0F1
:100AA00084E00E949A0080E00E94ED0164EF71E012
:100AB00080E090E00E94670181E00E94ED0164EF18
:100AC00071E080E090E00E94670182E00E94ED0109
:100AD00064EF71E080E090E00E94670183E00E9493
:100AE000ED0164EF71E080E090E00E94670184E036
:100AF0000E94ED0164EF71E080E090E00E946701E8
:100B0000D0930701C09306011093050100930401DF
:100B1000F0920301E0920201D0920101C092000123
:100B200060E086E00E949A0068EC70E085E00E9438
:100B3000E60060E08AE00E949A0068EC70E089E0DC
:100B40000E94E60068EE73E080E090E00E9467019A
:100B500060E085E00E949A0068E37FEF86E00E94F3
:100B6000E60060E089E00E949A0068E37FEF8AE097
:100B70000E94E60068EE73E080E090E00E9467016A
:100B800010928301A114B10409F489CF0E940000DE
:100B900086CF0895F894FFCFE803E803E803E8035D
:107800000C94343C0C94513C0C94513C0C94513CE1
:107810000C94513C0C94513C0C94513C0C94513CB4
:107820000C94513C0C94513C0C94513C0C94513CA4
:107830000C94513C0C94513C0C94513C0C94513C94
:107840000C94513C0C94513C0C94513C0C94513C84
:107850000C94513C0C94513C0C94513C0C94513C74
:107860000C94513C0C94513C11241FBECFEFD8E036
:10787000DEBFCDBF11E0A0E0B1E0ECE9FFE702C060
:1078800005900D92A230B107D9F712E0A2E0B1E065
:1078900001C01D92AD30B107E1F70E942D3D0C945F
:1078A000CC3F0C94003C982F959595959595959582
:1078B000905D8F708A307CF0282F295A8091C0000B
:1078C00085FFFCCF9093C6008091C00085FFFCCF60
:1078D0002093C6000895282F205DF0CF982F809127
:1078E000C00085FFFCCF9093C6000895EF92FF92F1
:1078F0000F931F93EE24FF2487018091C00087FD22
:1079000017C00894E11CF11C011D111D81E4E8164B
:1079100082E4F8068FE0080780E0180770F3E09132
:107920000401F091050109958091C00087FFE9CF1E
:107930008091C6001F910F91FF90EF9008950E94D3
:10794000763C982F8091C00085FFFCCF9093C600B5
:1079500091362CF490330CF09053892F089597555D
:10796000892F08951F930E949F3C182F0E949F3CCF
:107970001295107F810F1F9108951F93182F882350
:1079800021F00E94763C1150E1F71F9108951F935A
:10799000182F0E94763C803249F0809103018F5F5E
:1079A000809303018530C1F01F9108958091C0003C
:1079B00085FFFCCF84E18093C6008091C00085FFE5
:1079C000FCCF1093C6008091C00085FFFCCF80E102
:1079D0008093C6001F910895E0910401F091050184
:1079E00009951F9108950E94763C803241F0809164
:1079F00003018F5F80930301853081F008958091AA
:107A0000C00085FFFCCF84E18093C6008091C00058
:107A100085FFFCCF80E18093C6000895E0910401CA
:107A2000F09105010995089540E951E08823A1F0FE
:107A30002D9A28EE33E0FA013197F1F721503040CA
:107A4000D1F72D9828EE33E0FA013197F1F7215064
:107A50003040D1F7815061F708953F924F925F9285
:107A60006F927F928F929F92AF92BF92CF92DF924E
:107A7000EF92FF920F931F93CF93DF93000080E16B
:107A80008093C4001092C50088E18093C10086E015
:107A90008093C2005098589A259A81E00E94143D24
:107AA00024E1F22E9EE1E92E85E9D82E0FE0C02ECA
:107AB00010E1B12EAA24A394B1E49B2EA6E58A2E50
:107AC000F2E57F2EE0E26E2E79E4572E63E5462E36
:107AD00050E5352E0E94763C8033B1F18133B9F107
:107AE000803409F46FC0813409F476C0823409F41B
:107AF00085C0853409F488C0803531F1823521F1A3
:107B0000813511F1853509F485C0863509F48DC0BC
:107B1000843609F496C0843709F403C1853709F423
:107B200072C1863709F466C0809103018F5F80932C
:107B30000301853079F6E0910401F0910501099582
:107B40000E94763C803351F60E94F33CC3CF0E94E2
:107B5000763C803249F78091C00085FFFCCFF092DF
:107B6000C6008091C00085FFFCCF9092C600809136
:107B7000C00085FFFCCF8092C6008091C00085FFC9
:107B8000FCCF7092C6008091C00085FFFCCF609250
:107B9000C6008091C00085FFFCCF5092C600809146
:107BA000C00085FFFCCF4092C6008091C00085FFD9
:107BB000FCCF3092C6008091C00085FFFCCFB09210
:107BC000C60088CF0E94763C863808F4BDCF0E945C
:107BD000763C0E94F33C7ECF0E94763C803809F4CC
:107BE0009CC0813809F40BC1823809F43CC1883942
:107BF00009F48FC080E00E94C73C6CCF84E10E94F2
:107C0000BD3C0E94F33C66CF85E00E94BD3C0E94D3
:107C1000F33C60CF0E94763C809306010E94763C44
:107C2000809307010E94F33C55CF0E94763C80333D
:107C300009F41DC183E00E94BD3C80E00E94C73C66
:107C400049CF0E94763C809309020E94763C809343
:107C5000080280910C028E7F80930C020E94763C79
:107C6000853409F415C18091080290910902892B8D
:107C700089F000E010E00E94763CF801E85FFE4FDA
:107C800080830F5F1F4F80910802909109020817AF
:107C9000190788F30E94763C803209F045CF809125
:107CA0000C0280FF01C16091060170910701660F0F
:107CB000771F7093070160930601A0910802B091AD
:107CC00009021097C9F0E8E0F1E09B01AD014E0F09
:107CD0005F1FF999FECF32BD21BD819180BDFA9A17
:107CE000F99A2F5F3F4FE417F50799F76A0F7B1F4B
:107CF00070930701609306018091C00085FFFCCF5F
:107D0000F092C6008091C00085FFFCCFB092C60003
:107D1000E1CE83E00E94C73CDDCE82E00E94C73CFA
:107D2000D9CE0E94763C809309020E94763C8093D3
:107D300008028091060190910701880F991F909386
:107D40000701809306010E94763C853409F4A6C0A1
:107D500080910C028E7F80930C020E94763C8032D0
:107D600009F0B8CE8091C00085FFFCCFF092C6002C
:107D7000609108027091090261157105B9F140E046
:107D800050E080910C02A82FA170B82FB27011C0E2
:107D9000BB2309F45CC0E0910601F0910701319624
:107DA000F0930701E09306014F5F5F4F46175707B7
:107DB000E8F4AA2369F3F999FECF209106013091E6
:107DC000070132BD21BDF89A90B58091C00085FFB2
:107DD000FCCF9093C6002F5F3F4F30930701209355
:107DE00006014F5F5F4F4617570718F38091C00099
:107DF00085FDE5CE8091C00085FFF8CFE0CE81E023
:107E00000E94C73C67CE0E94763C803209F08CCE3F
:107E10008091C00085FFFCCFF092C6008091C00029
:107E200085FFFCCFE092C6008091C00085FFFCCFAB
:107E3000D092C6008091C00085FFFCCFC092C600E2
:107E40008091C00085FFFCCFB092C60043CEE09188
:107E50000601F091070194918091C00085FFFCCF4D
:107E60009093C6009CCF80E10E94C73C33CE0E9415
:107E7000763C0E94763C182F0E94763C112309F430
:107E800083C0113009F484C08FE00E94C73C22CE29
:107E900080910C02816080930C02E5CE80910C02EF
:107EA000816080930C0259CF809107018823880F4D
:107EB000880B8A2180930B02809106019091070123
:107EC000880F991F90930701809306018091080203
:107ED00080FF09C080910802909109020196909359
:107EE000090280930802F894F999FECF1127E091D6
:107EF0000601F0910701C8E0D1E08091080290915D
:107F00000902103091F40091570001700130D9F34B
:107F100003E000935700E89500915700017001308D
:107F2000D9F301E100935700E89509901990009169
:107F3000570001700130D9F301E000935700E89534
:107F40001395103498F011270091570001700130FB
:107F5000D9F305E000935700E895009157000170B0
:107F60000130D9F301E100935700E895329602976A
:107F700009F0C7CF103011F00296E5CF112480919F
:107F8000C00085FFB9CEBCCE8EE10E94C73CA2CD19
:0E7F900085E90E94C73C9ECDF894FFCF80008B
:00000001FF
